:020000040800F2
:10000000D0710020D90200089932000805280008A4
:1000100095320008491F00088759000800000000B9
:100020000000000000000000000000003502000891
:100030004D1F000800000000790200085D5500080F
:10004000F3020008F3020008F3020008F3020008BC
:10005000F3020008F3020008F3020008F3020008AC
:10006000F3020008F3020008F3020008F30200089C
:10007000F3020008F3020008F3020008F30200088C
:10008000F3020008F3020008F3020008F30200087C
:10009000F3020008F3020008F3020008F30200086C
:1000A000F3020008F3020008F3020008F30200085C
:1000B000F3020008F3020008DD550008F30200080F
:1000C000F3020008F3020008F3020008F30200083C
:1000D000F30200081157000851570008F302000806
:1000E000F3020008F3020008F3020008F30200081C
:1000F000F3020008F3020008F3020008F30200080C
:10010000F3020008F3020008F3020008F3020008FB
:10011000F3020008F3020008F3020008F3020008EB
:10012000F3020008F3020008F3020008F3020008DB
:1001300000F002F800F06EF80AA090E8000C82448B
:100140008344AAF10107DA4501D100F063F8AFF268
:10015000090EBAE80F0013F0010F18BFFB1A43F0A5
:1001600001031847509F0000709F000010F8013BEA
:100170000A4413F0030408BF10F8014B1D1108BF17
:1001800010F8015B641E05D010F8016B641E01F8C5
:10019000016BF9D1002D15D010F8014B03F00C03C1
:1001A0000C2BA1EB04040ABF10F8013BA4EB831451
:1001B000A4EB032405F1010314F8016B5B1E01F8A5
:1001C000016BF9D5914238BF10F8013BD1D370478C
:1001D0000023002400250026103A28BF78C1FBD850
:1001E000520728BF30C148BF0B607047662908F02E
:1001F000C886642900F0A680002070471FB500F073
:1002000091FD04000020002107F02CFEE0601FBDDE
:1002100010B510BD00F08FFE1146FFF7EFFF06F09E
:1002200015FC00F0ADFE03B4FFF7F2FF03BC00F0D5
:1002300073FD0000204B19680868B0E8F00F80F3E8
:100240000988BFF36F8F4FF0000080F311884EF0E4
:100250000D0E70470000000006480068006880F33B
:10026000088862B661B6BFF34F8FBFF36F8F00DFB0
:1002700000BF00BF08ED00E0EFF30980BFF36F8F10
:100280000D4B1A6820E9F00F106008B54FF0100010
:1002900080F3118807F020F94FF0000080F31188F7
:1002A000BDE8084019680868B0E8F00F80F30988D5
:1002B000BFF36F8F704700BF60010020EFF3118024
:1002C0004FF0100181F31188704780F31188704757
:1002D000EFF3058070470000094880470948004750
:1002E000FEE7FEE7FEE7FEE7FEE7FEE7FEE7FEE7E6
:1002F000FEE7FEE704480549054A064B7047000043
:100300007D55000831010008D06B0020D07100201D
:10031000D06D0020D06D00200FB41CB5084B06AA8C
:100320007B4469460090059800F08FFC044600204D
:10033000694600F09DFC20461CBC5DF814FB0000E3
:100340004D0900002DE9F04106460024106875298A
:10035000314616A510D0AFF30080002802DA4042E3
:1003600013A507E031688A0701D512A502E0490705
:1003700004D511A5012401E0AFF3008000210A2279
:1003800006F1240709E0B0FBF2FCB0FBF2F302FB3C
:100390001C00303078541846491C0028F3D12346FD
:1003A0002A463046BDE8F04100F0E3B90000000005
:1003B0002D0000002B000000200000002DE9F05F60
:1003C000894604464FF0000ADFF874B1FB44C0F8D8
:1003D00020A02046E1688847002874D0252806D050
:1003E000D4E901219047206A401C2062F1E70026F1
:1003F0005F462046E16888472028054607DB312D07
:1004000005D2781910F8200C08B10643F1E7B007BF
:1004100001D526F00406C4F81CA00027C4F818A0D3
:100420002A2D09D0284605F0FFFB38B304EB8708D6
:10043000303DC8F8185019E059F8041B204604EB69
:1004400087029161E1688847012F054618D1E0696C
:10045000002820DA26F020061DE0D8F8180000EB6E
:10046000800005EB40003038C8F818002046E168ED
:100470008847054605F0D8FB0028EED1012F0AD0A9
:100480002E2D08D12046E16888477F1C0546022FA3
:1004900046F02006C4DBA069002803DA404246F09B
:1004A0000106A061F00701D026F010066C2D0BD0DC
:1004B000682D09D04C2D39D06A2D35D0742D35D00A
:1004C0007A2D33D016E038E0E1682F462046884781
:1004D000B842054609D16C2F26D04FF48060E16800
:1004E000064320468847054604E06C2F1AD04FF497
:1004F000807006430DB3A5F14100192802D82035BC
:1005000046F400664A462946204626604E46FFF7D6
:100510006DFE80B101280BD0F61D26F0070000F11A
:10052000080956E74020E4E78020D8E70020D6E716
:1005300006F104094DE7284652E7206ABDE8F09F1E
:10054000E59A00000EB5054614460E4613A000F0CD
:100550009FFB284600F09CFB16A000F099FB30465C
:1005600000F096FB15A000F093FB00218DF80B1016
:100570000A210DF10A008DF80A1008E094FBF1F24F
:1005800001FB124294FBF1F4303200F8012D002CF3
:10059000F4DC00F07DFB00F070FB00002A2A2A202A
:1005A000617373657274696F6E206661696C6564EE
:1005B0003A2000002C2066696C6520002C206C69B4
:1005C0006E652000401ECAB210F8011F8A4202D098
:1005D0000029F9D10020704730B505460B462A4660
:1005E00013F8014B12F8010B08B1A042F8D01CB16E
:1005F000002802D06D1CF1E7284630BD10B5431C21
:1006000002E010F8011B71B18107FAD14FF00132FD
:1006100002C88C1A8C4314EAC211F9D0C01A0A0617
:1006200003D0C01E10BDC01A10BD0A0401D0801E28
:1006300010BD0902FCD0401E10BD032A40F23080DC
:1006400010F0030C00F0158011F8013BBCF1020F13
:10065000624498BF11F801CB00F8013B38BF11F894
:10066000013BA2F1040298BF00F801CB38BF00F8AB
:10067000013B11F0030300F01583083AC0F0088035
:1006800051F8043B083A51F804CBA0E80810F5E70C
:10069000121D5CBF51F8043B40F8043BAFF30080EF
:1006A000D20724BF11F8013B11F801CB48BF11F864
:1006B000012B24BF00F8013B00F801CB48BF00F834
:1006C000012B70474FF000020429C0F0128010F097
:1006D000030C00F01B80CCF1040CBCF1020F18BF1E
:1006E00000F8012BA8BF20F8022BA1EB0C0100F0B1
:1006F0000DB85FEAC17C24BF00F8012B00F8012B84
:1007000048BF00F8012B70474FF0000200B51346B8
:1007100094469646203922BFA0E80C50A0E80C5021
:10072000B1F12001BFF4F7AF090728BFA0E80C50D2
:1007300048BF0CC05DF804EB890028BF40F8042BCB
:1007400008BF704748BF20F8022B11F0804F18BF38
:1007500000F8012B704770477047704710B500F0E4
:10076000E5FA006810BD10B5044600F0DFFA046039
:1007700010BD2DE9F0470D4699469246044600F11A
:1007800024080168880604D5E06921F01001216081
:1007900000E00120A84201DD471B00E00027A1691D
:1007A0007A1902EB0900081AA0612078C00602D469
:1007B0002046AFF30080002608E0D4E901211AF8B2
:1007C00006009047206A401C761C20624E45F4DBF0
:1007D0002078C0060AD52046AFF3008006E0D4E9B1
:1007E000012130209047206A401C2062381EA7F16A
:1007F0000107F4DC07E0D4E9012118F8050090476F
:10080000206A401C2062281EA5F10105F3DC204669
:10081000AFF300802078000602D50220BDE8F08703
:100820000120FBE770472DE9FF4F0C461E464FF0B5
:10083000FF378BB0D2E90001DDF860800A908A466C
:10084000C1F30A5505B93D46002108464FF00000A6
:10085000BAF1000F00F4400005DA00EB80004FF41D
:10086000400101EA50004FEA9059B9F1010F00DD53
:10087000B9460A9850EA4A000ED044F61050A5F244
:10088000FF3545432F14B8F1000F1ED07542291EC5
:100890001EDDC9F100021CE0B8F1010F4FF00000AD
:1008A00001D0302103E0F24305E02154401CB04266
:1008B000FBDB30460022002121540B99C1F808804F
:1008C000C1E900200FB0BDE8F08FBD1B6D1CDEE755
:1008D0004A4600DA694206A800F0B2FA06AB93E88D
:1008E000070003AB83E8070050460A9900F0C7FBF6
:1008F0008DE80700A0F500501F3800900398002DE8
:1009000009DD42F21F014A46084403A903906846E4
:1009100000F026FE08E0A0F500504A461F3803A963
:100920000390684600F030FE8DE807000004000CDC
:1009300003D04FF0FF30410800E01046B8F1000F3F
:1009400003D00022009215461EE0751E05D400F06B
:10095000F1F9303262556D1EF9D5B34601220843D4
:1009600002D000227F1C04E02078302801D1002230
:100970007F1E002A099786D01DE0112D07DA00F0AE
:10098000D9F9303262556D1C50EA0102F5D10843A5
:1009900002D00098C8B10EE00021681E05E0235C7B
:1009A000625C63542254401E491C8142F7DBAB4613
:1009B000A81B401E0990002004F80B000B98099A10
:1009C000C0F80880C0E9002B7CE711264FF0000832
:1009D00059E72DE9F04F88460446D21D22F0070161
:1009E00091B0D1E90001CDE90A0105F0A9F802466C
:1009F0000B98C00F01D02D2007E02068810701D59A
:100A00002B2002E0202101EAC000032A099001D036
:100A1000072A05DB03464146204600F0D1F90BE1E9
:100A20002078800601D5E06900E00620B8F1650F66
:100A3000814606D0B8F1660F18D0B8F1670F70D1B3
:100A400031E00020B9F1110F009001DB112301E02A
:100A500009F101030AAA01A90CA8FFF7E4FEDDE9E8
:100A60000C70002609F10105834647E001204B4642
:100A700000904FF000470AAA01A90CA8FFF7D3FE87
:100A8000DDE90DB00C995D46002610B909F10100B1
:100A90000D18B9EB050003D4C0F1FF3609F10105CB
:100AA000A5EB09002BE0B9F1010F01DA4FF00109C4
:100AB0000020B9F1110F0090484601DD112300E03C
:100AC00003460AAA01A90CA8FFF7ADFEDDE90C70E8
:100AD0004D4600268346207800070AD4AB4500DA4D
:100AE0005D4601A8012D04DD411911F8011C3029D2
:100AF00007D04F4502DA17F1040F04DA01208246CD
:100B00000FE06D1EEEE7002F02DCED1B3E4403E01C
:100B1000781CA84200DD7D1CB81B00F1010A4FF0D3
:100B200000472078000703D4AA4501DB4FF0FF3AC5
:100B30000021B7F1004F0DF143088DF8431024D088
:100B400002202B23002F01DA7F422D230A21021ECF
:100B5000A0F1010000DC5FB197FBF1FC97FBF1F223
:100B600001FB1C7C17460CF1300C08F801CDEEE7B8
:100B7000A8F1010003702188090501D5452100E095
:100B80006521A0F1010800F8011C09980FA9A1EB4B
:100B90000807FF1D00B10120411901EBEA70A169AE
:100BA0003844081A401EA0612078C00602D42046AE
:100BB000AFF30080099828B1D4E901219047206A59
:100BC000401C20622078C00622D52046AFF300806A
:100BD0001EE0002E04DBB34502DD01A8805D00E0CD
:100BE0003020D4E901219047206A401C2062761C05
:100BF000AAF101005FEA000A0AD100F093F8C06888
:100C00000168405CD4E901219047206A401C2062C1
:100C1000281EA5F10105DCDC07E0D4E9012118F864
:100C2000010B9047206A401C2062381EA7F1010783
:100C3000F3DC2046AFF30080032011B043E6000050
:100C400001694A1C02610878704700B58FB0CDE990
:100C500001310021059105497944CDE90310114680
:100C60006846FFF7ABFB0FB000BD0000E5FFFFFFDC
:100C70000A6802F8010B0A60704710B5002000F006
:100C80004DF9FFF7C5FABDE81040012000F044B867
:100C900010B5044602E0641C00F036F82078002805
:100CA000F9D110BD10B5203AC0F00B80B1E8185052
:100CB000203AA0E81850B1E81850A0E81850BFF446
:100CC000F5AF5FEA027C24BFB1E81850A0E81850E5
:100CD00044BF18C918C0BDE810405FEA827C24BF39
:100CE00051F8043B40F8043B08BF7047D20728BFC7
:100CF00031F8023B48BF11F8012B28BF20F8023B16
:100D000048BF00F8012B704708B569468DF8000010
:100D10000320ABBE08BD000001491820ABBEFEE7B2
:100D200026000200004870478C6B00200048704786
:100D30006C6B002030B5B0F10A024FEA900E71F1F1
:100D400000034EEA817EB0EB0E0061EB91014FEAA9
:100D5000101E4EEA017E10EB0E0041EB11114FEA1E
:100D6000102E4EEA016E10EB0E0041EB11214FEAFE
:100D7000104E4EEA014E10EB0E0041EB11414018AF
:100D800041F100014FEAD00040EA41704FEAD10141
:100D900010EB80054FEA810444EA907444EB0104AF
:100DA0006D1944EB0404521BA3414FF0000348BFEC
:100DB0000A3200D530BD401C41F1000130BD0000B9
:100DC0002DE9F0411F46044603260168072A01F475
:100DD000006004DB08B116A505E016A503E008B124
:100DE00015A500E015A521F010002060A069C01E27
:100DF000A0610FB1401EA0612046AFF300804FB14B
:100E0000D4E9012138469047206A401C2062C01C6A
:100E1000206206E0206AFAE7D4E9012115F8010B07
:100E20009047761EF8D22046AFF30080BDE8F081EF
:100E30004E414E006E616E00494E4600696E66007E
:100E40002DE9F047814616468AB0334878440DC8EC
:100E50008DE80D0030487844801C03AC0DC884E850
:100E60000D0041F69B300844372190FBF1F290FBD6
:100E7000F1F5A5F1800501FB12041B3C02D564428B
:100E8000012000E00020DFF890A080460027FA440F
:100E9000AAF1BE0A0DE0E00709D03246684607EB2A
:100EA00047010AEB810100F06FFB8DE80700641039
:100EB0007F1C002CEFD1184F7F44AC3F18E0E807AF
:100EC00014D007EB04100DF1180A90E80E008AE820
:100ED0000E00C068F04201D198190890324606A968
:100EE00003A800F051FB03AB83E807006D10641CFE
:100EF000002DE4D132466946B8F1000F03A802D0B4
:100F000000F02EFB01E000F03FFBC9E90001C9F849
:100F100008200AB0BDE8F0878C91000010B500F001
:100F20003DF8BDE8104000F034B8000000487047BC
:100F30006C6B002070477546FFF7F8FFAE46050062
:100F40006946534620F00700854618B020B5FFF7E4
:100F5000D1F9BDE820404FF000064FF000074FF0F8
:100F600000084FF0000B21F00701AC46ACE8C009C7
:100F7000ACE8C009ACE8C009ACE8C0098D467047D0
:100F800010B50446AFF300802046BDE81040FFF7DF
:100F90004AB9002801D0FFF7BFBE704710B5002145
:100FA00002A000F053F8012010BD00005349474152
:100FB0004252543A2041626E6F726D616C207465CA
:100FC000726D696E6174696F6E0000004FF0013CD4
:100FD00050F8042B51F8043B9A4221D1A2EB0C03A8
:100FE000934313EACC1317D150F8042B51F8043B68
:100FF0009A4215D1A2EB0C03934313EACC130BD105
:1010000050F8042B51F8043B9A4209D1A2EB0C038F
:10101000934313EACC13DBD04FF00000704700BFBE
:10102000D01A01BAB1FA81F101F0180122FA01F0E7
:10103000CB40C1F12001DBB2C0B2C01A2CFA01F3DF
:10104000D11A914311EAC311E6D1704770B5054634
:101050000C460A2000E06D1CFFF756FE35B12878DB
:101060000028F8D102E0641CFFF74EFE14B120788E
:101070000028F8D1BDE870400A20FFF745BE5FEABE
:10108000400C08BF91F0000F4FEA8C234FEAC122B9
:1010900043EA51514FEA1C5018BF00F5F0404FEAA7
:1010A000300018BF41F000415FEA6C5C00F029801D
:1010B000BCF1FF3F08BF40F080407047130C06BFF3
:1010C00012044FF0100C4FF0000C130E04BF12026C
:1010D0000CF1080C130F04BF12010CF1040C930F58
:1010E00004BF92000CF1020CD30F04BF52000CF1AC
:1010F000010C11464FF00002A0F11F00A0EB0C0004
:10110000704711F0004F08BF704731F000413FF4C5
:10111000D5AF0B0C06BF09044FF0100C4FF0000CBC
:101120000B0E04BF09020CF1080C0B0F04BF0901E0
:101130000CF1040C8B0F04BF89000CF1020CCB0FD7
:1011400004BF49000CF1010CCCF12003A0EB0C0012
:1011500022FA03F302FA0CF241EA030100F1010062
:10116000704720F07F4C80EA030023F07F47ACEB10
:10117000070303F57C5300F0004003F1FF032DE962
:1011800080494FEA154B09B44FEA144325EA0B4E48
:1011900024EA03480FF2042606EB132749083E7899
:1011A0005FEA320203FB0667C7F5000707FB06F696
:1011B0004FEA54374FEAD64606F1020607FB066CA3
:1011C000CCF1005C4FEA1C472CEA074C07FB06F405
:1011D0000CFB06F504EB15464FEA961634BF0020CB
:1011E0004FF000404FEAD13706FB07FC4FEA1C4C9A
:1011F0000CFB0BF7D21B03FB0CF761EB07010CFB9D
:101200000EF7B0EB074072EB17420CFB08F734BF48
:10121000A2EB0742B2EB074261EB17414FEA0C44E5
:101220004FEA910706FB07FC4FEA1C4C0CFB0BF73F
:10123000B0EBC74072EB573203FB0CF734BFA2EBA5
:10124000C742B2EBC74261EB57310CFB0EF7B0EB74
:10125000C70072EB57720CFB08F734BFA2EBC70252
:10126000B2EBC70261EB5771039F4FEA816141EA1C
:10127000921104EBCC044FEAD1374FEA826206FBAD
:1012800007FC42EA90124FEA80604FEA1C4C0CFBCC
:101290000BF7D21B03FB0CF761EB07010CFB0EF7FE
:1012A000B0EB074072EB17420CFB08F734BFA2EB20
:1012B0000742B2EB074261EB17414FEA8C554FEA08
:1012C000910704EB9C2406FB07FC4FEA1C4C0CFB2B
:1012D0000BF7B0EBC74072EB573203FB0CF734BF90
:1012E000A2EBC742B2EBC74261EB57310CFB0EF7E2
:1012F000B0EBC70072EB57720CFB08F734BFA2EBE0
:10130000C702B2EBC70261EB577115EB4C254FEAF0
:10131000816141EA92114FEA82624FEAD13742EA93
:10132000901206FB07FC44F100044FEA80604FEA8C
:101330001C4C0CFB0BF7D21B03FB0CF761EB0701FA
:101340000CFB0EF7B0EB074072EB17420CFB08F7F3
:1013500034BFA2EB0742B2EB074261EB174115EB3A
:101360001C154FEA813141EA92414FEA823242EA4A
:1013700090424FEA80304FEA0C7644F1000448EA8C
:1013800003434EEA0B484FF0000EB2EB080C71EB32
:10139000030724BF624639464EEB0E0E4FF0000B9A
:1013A0000018524149414BEB0B0BB2EB080C71EBAF
:1013B00003077BF1000B24BF624639464EEB0E0E4D
:1013C0004FF0000B0018524149414BEB0B0BB2EBB5
:1013D000080C71EB03077BF1000B24BF6246394612
:1013E0004EEB0E0E51EA020718BF46F0010616EB4F
:1013F0000E7655F1000254F1000103D5BDE88901D4
:10140000BDE80088BDE88901BDE80048B619524131
:1014100041EB0101A3F10103704780807F7E7D7C59
:101420007B7A7978777676757473727171706F6E76
:101430006E6D6C6C6B6A6A69686867666665646421
:10144000636362616160605F5F5E5E5D5D5C5C5BAB
:101450005B5A5A595958585757565655555554541A
:10146000535352525251515050504F4F4F4E4E4D78
:101470004D4D4C4C4C4B4B4B4A4A4A4949494848C4
:101480004847474747464646454545444444444304
:1014900043434342424242414141002B26D477001C
:1014A00021D01CB54FEA370703B44FF010004FF0BE
:1014B00010014FF000000FBCBDE810400BF1010B14
:1014C000BBF1010F08BF5FEA170722BF12F101024B
:1014D00011F101014FF0004143F1000300F0004021
:1014E00043EA00007047F9D35708DAE746EA0646B0
:1014F00013F1400F4FEA16461FDD13F1200FDFBF37
:1015000016430A46002120335B42C8D0C3F12007AE
:1015100046EA064602FA07F74FEA164646EA070683
:10152000C3F1200722FA03F201FA07F721FA03F1C7
:101530004FF0000342EA0702B1E746EA020646EA34
:1015400006464FEA164646EA0106BCBF46EA06468C
:10155000360C4FF000034FF000024FF000019EE701
:101560002DE9C048934630B491E8380007C831EA05
:10157000400C48BF34EA430C03D5FFF7F2FDFFF7F8
:101580008CFFF0BCBDE800882DE9C048934630B41C
:1015900091E8380007C810F0804F08BF13F0804F63
:1015A00003D100F005F8FFF778FFF0BCBDE8008834
:1015B00020F07F4780EA030023F07F4C07EB0C0309
:1015C000A3F57C5300F00040A3F1FE0392F0000F5E
:1015D00000F0B38095F0000F00F077802DE901490D
:1015E0004FEA11404FEA144621EA004800FB06FC8E
:1015F00024EA064708FB06F607FB08F800FB07F796
:1016000018EB06484CEB164C4FEA124B18EB074808
:101610004FEA15464CEB174022EA0B4E0BFB06FC3B
:1016200025EA06470EFB06F607FB0EFE0BFB07F747
:101630001EEB064E4CEB164C4FF000061EEB074E11
:101640004CEB174B18EB0B0840F1000018EB0E0B9E
:1016500058EB000840F100008F1A4FF000013CBF2A
:10166000C943661B14BFB5EB040C00213CBFC94342
:10167000F61B4FEA17444EEA8E0E27EA04454FEA5E
:101680001C4704FB07622CEA074C05FB07F70CFB21
:1016900005F604FB0CFC16EB074642EB174216EB73
:1016A0000C4642EB1C421BEB060658EB0202414182
:1016B00046EA9E0601D5BDE80189B619524141EBC3
:1016C0000101A3F10103BDE801894FEA14454FEA86
:1016D000114724EA054621EA074C05FB07F406FBFF
:1016E00007F70CFB06F105FB0CFC11EB074144EB83
:1016F00017444FEA124711EB0C4144EB1C4422EA19
:10170000074C05FB07F206FB07F70CFB06F605FB8B
:101710000CFC16EB074642EB174216EB0C4642EB6D
:101720001C456A1854F1000148BF7047B619524170
:1017300041EB0101A3F10103704795F0000F37D091
:101740004FEA11424FEA144721EA024624EA074CC5
:1017500002FB07F106FB07F70CFB06F402FB0CFC8F
:1017600014EB074441EB17414FEA154714EB0C44C7
:1017700041EB1C4125EA074C02FB07F506FB07F786
:101780000CFB06F602FB0CFC16EB074645EB174577
:1017900016EB0C4645EB1C42121951F1000148BFF3
:1017A0007047B619524141EB0101A3F101037047A3
:1017B0004FEA14454FEA114724EA054621EA074C4F
:1017C00005FB07F106FB07F70CFB06F24FF00006DE
:1017D00005FB0CFC12EB074241EB174112EB0C42EC
:1017E00051EB1C4148BF7047921841EB0101A3F136
:1017F0000103704721B1826842F00102826003E078
:10180000826822F0010282607047000010B5044631
:101810001248844208D10121401503F057FB0021F2
:10182000601503F053FB17E00D48844208D10121F5
:10183000001503F04BFB0021201503F047FB0BE0E4
:101840000848844208D10121C80303F03FFB00216E
:101850004FF4004003F03AFB10BD000000240140AB
:1018600000280140003C0140014600208A6802F047
:1018700004020AB1012000E0002070470146C86C54
:1018800080B270470246002013680B400BB1012064
:1018900000E000207047014600208A6802F008023C
:1018A0000AB1012000E000207047000030B5024678
:1018B0000020002350680F4C20400D790C6844EA4A
:1018C00005242043506090680B4C2040D1E902541D
:1018D0002C434D7944EA450420439060D06A20F4BB
:1018E00070000C7C641EE4B2234340EA0350D062D3
:1018F00030BD0000FFFEF0FFFDF7F1FFF0B504463C
:101900000D4600200021092D11DDE068A5F10A0631
:1019100006EB4607072606FA07F18843A5F10A06F3
:1019200006EB460603FA06F10843E0600CE0206986
:1019300005EB4507072606FA07F1884305EB450640
:1019400003FA06F108432061072A0FDA606B561E7E
:1019500006EB86071F2606FA07F18843561E06EB9C
:10196000860605FA06F10843606322E00D2A0FDAC5
:10197000206BD61F06EB86071F2606FA07F1884361
:10198000D61F06EB860605FA06F10843206310E031
:10199000E06AA2F10D0606EB86071F2606FA07F19C
:1019A0008843A2F10D0606EB860605FA06F1084308
:1019B000E062F0BD816841F008018160704721B1AB
:1019C000826842F4A002826003E0826822F4A002EE
:1019D00082607047816841F00401816070470000B7
:1019E00030B10749096841F40001054A116005E07A
:1019F0000349096821F40001014A116070470000A1
:101A00000824014070B504460D46072301222946EB
:101A10002046FFF773FF01212046FFF7D0FF00BFEC
:101A200002212046FFF72EFF0028F9D02046FFF7BD
:101A300025FF70BD2DE9F04707468846144600256E
:101A400000260DE041463846FFF7DCFF824607F0EE
:101A500043F98146294606F0E3FF0546701CC6B2ED
:101A6000A642EFDB204607F037F98246514628466A
:101A700007F038F8814607F0F7F880B2BDE8F08744
:101A80002DE9FC5F04468946924652464946204667
:101A9000FFF7D0FF0190019807F01EF94FF08B413E
:101AA000009007F01FF8834606F08EFF07464FF0C0
:101AB0006632044B06F0AEFC054606F0E9F9BDE8D7
:101AC000FC9F000066660A4030B585B004460D46AE
:101AD0002648844204D10121401503F0E7F90BE0C8
:101AE0002348844204D10121001503F0DFF903E00B
:101AF0000121C80303F0DAF94FF4004003F0BAF90A
:101B00002046FFF783FE00208DF8050003904FF478
:101B1000602002900020009001208DF8100000202D
:101B20008DF8040069462046FFF7C0FE0F48844246
:101B300003D115B10120FFF753FF01212046FFF724
:101B400059FE2046FFF736FF00BF2046FFF7A3FEF1
:101B50000028FAD12046FFF73DFF00BF2046FFF7DF
:101B600083FE0028FAD105B030BD000000240140FA
:101B700000280140F0B589B006460F4615460024FE
:101B80000B208DF804008DF8057000BF05E0315D75
:101B900001AAA01C1154601CC4B2AC42F7DBA81C03
:101BA000C2B201A9012003F08BFB002405E001A9CA
:101BB000A01C085C3055601CC4B2AC42F7DB09B015
:101BC000F0BD00002DE9F04F87B000200690059091
:101BD0000490012000F0B2F804AA05A906A800F0BC
:101BE00069F8BDF9180007F05FF8804606F0ECFED2
:101BF00006462B4A2B4B06F00DFC044606F048F92E
:101C000029490860BDF9140007F04EF8804606F037
:101C1000DBFE0646224A234B06F0FCFB044606F098
:101C200037F921494860BDF9100007F03DF88046BA
:101C300006F0CAFE06461A4A1A4B06F0EBFB0446AB
:101C400006F026F918498860BDF9100006F0B7FBC8
:101C500080468946BDF918104943BDF9142002FB9E
:101C6000021006F0ACFBCDE9000105F0E7F9824671
:101C700042464B4606F0EEF9064603F0DDFF044609
:101C80000A4A0B4B06F0C6FBCDE9020106F000F94B
:101C90000549C860002000F051F807B0BDE8F08F9A
:101CA000FCA9F1D24D62503FC86A00207D96E7C181
:101CB000DDA54C407CB506460C461546002000903C
:101CC000019006220E216846FFF754FF9DF80000A0
:101CD0009DF8011000EB012000B230809DF8020059
:101CE0009DF8031000EB012000B220809DF8040055
:101CF0009DF8051000EB012000B228807CBD00009B
:101D000038B5002000900024012300220A49104623
:101D100003F07CFA0446012200216846FFF72AFFFF
:101D2000012202216846FFF725FF9DF80000F228F6
:101D300000D00024204638BD00093D0038B50446D7
:101D400000200090002501222D216846FFF712FF98
:101D50009DF8000020F0030545EA4400C5B20122C9
:101D60002D21284600F001F838BDF8B504460D468F
:101D70001646002000900A208DF800008DF80150D2
:101D8000E0B28DF8020020128DF80300B01CC2B240
:101D90006946012003F0B4FAF8BD000010B500F068
:101DA000DBFF104801780078401C0E4B18700020B3
:101DB00000F02FF80A2000F00BF90B49002000F08A
:101DC0001FF80948027809A10C48FEF7A5FA0B4A4A
:101DD0000021084602F062FE4FF47A7000F0B7F876
:101DE00010BD00000C1400200D14002041543234AA
:101DF00043303220546573743A256400B86A002079
:101E000070B504460D462A462146502000F026FDB6
:101E100070BD13B5044601AA2146502000F053FDC1
:101E20001CBD00001FB500201B4A0123CDE9012085
:101E30000093039003464FF4007218A11A4805F06E
:101E400067FE0020194A0223CDE901200093039088
:101E500003464FF4007216A1184805F059FE002001
:101E6000174A0323CDE901200093039003464FF462
:101E7000007214A1164805F04BFE0020154A0423F9
:101E8000CDE901200093039003464FF4007212A1A4
:101E9000144805F03DFE1FBD3C14002076546173CC
:101EA0006B464C4153480000597300084014002011
:101EB000765461736B4C4544000000003574000893
:101EC00044140020765461736B4D736750726F0039
:101ED0004774000848140020765461736B53746192
:101EE000727400005774000808B50121082002F040
:101EF000DDFF0121084602F0D9FF0121094800F069
:101F000027FC10208DF803000820ADF80000032006
:101F10008DF802006946044800F08EFB002000F0B6
:101F200005F808BD00023000000C014010B5044661
:101F300022460821024800F060FC0248047010BDEF
:101F4000000C01400E14002000BFFEE7704770B582
:101F50000446002600254FF4FA7094FBF0F0C6B258
:101F60004FF4FA7094FBF0F100FB114085B205E0EC
:101F70004FF4FA7000F02CF8701EC6B2002EF7D1A4
:101F800015B1284600F024F870BD00000F49088004
:101F900047210E4A121F11800C492C39098841F043
:101FA00001010A4A2C3A118000BF08491C390988EE
:101FB00001F001010029F8D004491C39098821F0F9
:101FC0000101024A1C3A1180704700002C040040B5
:101FD00000B5034603E04FF47A70FFF7D7FF181EF1
:101FE000A3F101018BB2F6D100BD000010B50121B3
:101FF000022002F04BFF01201849088000BF17485B
:102000001030008800F001000028F8D0134810308C
:10201000008820F0010011491031088000200F498C
:1020200008800846008840F0080008800B481430FB
:10203000008840F001000949143108800020074958
:102040000C310880054800884FF6FE7108400349AE
:102050000880472001492831088010BD0004004055
:102060002DE9FF5F8CB01746984601200B900020A9
:10207000089009900A9083460790069000240590E6
:1020800082460126002500BF81463846414606F0BB
:1020900039F985B2284606F0A9F93A464346CDE912
:1020A000000106F0B5FACDE9020100226B4BDDE933
:1020B000020106F0AFF9CDE9000106F053F91FFA6D
:1020C00080F906E006EB860046000B98401CC0B283
:1020D0000B900A2095FBF0F090FBF6F00028F1D170
:1020E00042F2107095FBF0F00A2190FBF1F201FB37
:1020F0001200C0B28DF820004FF47A7095FBF0F01A
:1021000090FBF1F201FB1200C0B28DF821006420B7
:1021100095FBF0F090FBF1F201FB1200C0B28DF8DC
:1021200022000A2095FBF0F090FBF1F201FB120077
:10213000C0B28DF823000A2095FBF0F100FB11508E
:10214000C0B28DF824002E208DF825004FF47A704F
:1021500099FBF0F00A2190FBF1F201FB1200C0B2F2
:102160008DF82600642099FBF0F090FBF1F201FB62
:102170001200C0B28DF827000A2099FBF0F090FB06
:10218000F1F201FB1200C0B28DF828000A2099FB81
:10219000F0F100FB1190C0B28DF8290000241CE082
:1021A00008A8005D38B9059828B9BAF1000F02D126
:1021B0000BF1010B10E008A8005D2E2803D1069456
:1021C0004FF0010A0BE008A8005D28B1BAF1000F3A
:1021D00002D10120059002E0641C0A2CE0DB00BF64
:1021E000059801280FD100240AE004EB0B0008A990
:1021F000085C085508A8005D2E2800D10794641CCF
:102200000A2CF2DB12E0BAF1010F0FD100240BE02F
:1022100006982044401E08A9085C085508A8005DDF
:102220002E2800D10794641C0A2CF1DB002605E05F
:1022300008A8805D303008A98855761C0A2EF7DB87
:102240002E2108AA0798115400208DF82500DDE9F9
:102250000C0102F023FC10B0BDE8F09F0088C340E1
:10226000FEB505460E461446002C32DB4FF47A705C
:1022700094FBF0F03030C0B28DF800004FF47A706B
:1022800094FBF0F100FB1140642190FBF1F0303041
:10229000C0B28DF80100642094FBF0F100FB114006
:1022A0000A2190FBF1F03030C0B28DF802000A2014
:1022B00094FBF0F100FB11403030C0B28DF8030008
:1022C00000208DF804006A463146284602F0E6FBFD
:1022D00035E064422D208DF800004FF47A7094FBB5
:1022E000F0F03030C0B28DF801004FF47A7094FBFA
:1022F000F0F100FB1140642190FBF1F03030C0B2EE
:102300008DF80200642094FBF0F100FB11400A21DB
:1023100090FBF1F03030C0B28DF803000A2094FB3E
:10232000F0F100FB11403030C0B28DF80400002005
:102330008DF805006A463146284602F0AFFBFEBD27
:102340002DE9F05F06460F4690461C46DDF828A0B2
:102350004FF0000BE11704EB5171C910A4EBC10160
:1023600031B92046E11704EB5171C1F3C70506E00E
:102370002046E11704EB5171C910491CCDB23D460E
:1023800015E02946304600F013FEB1460BE05946F1
:102390004A1C1FFA82FB1AF8010000F049FE09F1FD
:1023A000010000F0FF09C145F1DB681CC5B2A54280
:1023B000E7DDBDE8F09F000070B50026002412E0C4
:1023C0002146002000F0F4FD002508E03146721C93
:1023D00096B2064A505C00F02BFE681CC5B2802DF8
:1023E000F4DB601CC4B2082CEADB70BD980100204D
:1023F00010B580210348FEF765F9002002490880E6
:1024000010BD0000D86A00201014002070B50546E9
:10241000002400BF00F0F6F880B90DA10E48FEF7C9
:10242000DBF8044654B13A212046FEF7CBF80446C7
:1024300014B1641C204670BD0020FCE70520FFF7A6
:10244000C7FD281EA5F101018DB2E3D100BFF2E75F
:102450004950442C00000000D86A002008B5012132
:10246000042002F023FD10208DF803000120ADF8B8
:10247000000003208DF8020069461C4800F0DCF8DB
:1024800000220121194800F0B8F9FA20FFF7A0FD59
:1024900001221146154800F0B0F94FF4FA70FFF729
:1024A00097FDFFF7A5FF03E04FF4FA70FFF790FDEB
:1024B0000FA110A000F058F80028F5D103E04FF468
:1024C000FA70FFF785FD0DA10EA000F04DF8002871
:1024D000F5D103E04FF4FA70FFF77AFD15A117A0CC
:1024E00000F042F80028F5D108BD000000080140C6
:1024F0004F4B000041540D0A00000000474F54208C
:102500004950000041542B43574A41503D22536DDE
:102510006172745F436F64655F736861222C22731C
:102520006861787A31393935343234636F646522C1
:102530000D0A0000434F4E4E4543540041542B4377
:10254000495053544152543D22544350222C22317D
:1025500039322E3136382E302E313034222C31386B
:1025600038330D0A000000002DE9F04104460D4605
:10257000C8262046FEF742F887B23A4621460D4863
:1025800003F05AFA0FE000F03DF848B929460A482E
:10259000FEF722F820B1FFF72BFF0020BDE8F08105
:1025A0000A20FFF715FD301EA6F10101CEB2EAD1D7
:1025B0000120F3E700440040D86A002030B589B01C
:1025C00004460D46FFF714FF2A4608A101A8FDF7AF
:1025D000A3FE0AA101A8FFF7C7FF20B92A4621469A
:1025E000074803F029FA09B030BD000041542B43DD
:1025F000495053454E443D25640D0A003E000000FD
:10260000004400400A48008808B901207047084883
:10261000008808490988884203D1002004490880BD
:10262000F4E703480088034908800120EEE7000032
:1026300010140020121400202DE9F041024600255C
:102640000026002000230024002791F803C00CF08E
:102650000F0591F803C00CF0100CBCF1000F03D073
:1026600091F802C04CEA050591F800C0BCF1000FDA
:1026700031D0146800202BE04FF0010C0CFA00F36D
:10268000B1F800C00CEA03069E4220D183004FF04F
:102690000F0C0CFA03F7BC4305FA03FC4CEA0404E4
:1026A00091F803C0BCF1280F06D14FF0010C0CFAD1
:1026B00000FCC2F814C00AE091F803C0BCF1480F56
:1026C00005D14FF0010C0CFA00FCC2F810C0401C00
:1026D0000828D1D31460B1F800C0BCF1FF0F34DD7D
:1026E000546800202EE000F1080C4FF0010808FAB1
:1026F0000CF3B1F800C00CEA03069E4221D183001E
:102700004FF00F0C0CFA03F7BC4305FA03FC4CEA3C
:10271000040491F803C0BCF1280F05D100F1080CA6
:1027200008FA0CF8C2F8148091F803C0BCF1480F05
:1027300007D100F1080C4FF0010808FA0CF8C2F8B4
:102740001080401C0828CED35460BDE8F081000002
:10275000F0B50A46002300240021002500F00046C1
:10276000B6F1004F02D11D4EF16901E01B4E7168B8
:10277000C0F3034583B200F44016B6F5401F08D1FC
:1027800021F07061154E766826F07066134F7E60FA
:1027900012E000F48016B6F5801F06D1032606FA73
:1027A00005F4A14341F0706106E0460D360103FADD
:1027B00006F6B14341F0706122B1460D360103FACD
:1027C00006F6314300F00046B6F1004F02D1034E49
:1027D000F16101E0014E7160F0BD000000000140B8
:1027E0000246002093680B400BB1012000E000205E
:1027F000704741617047016170470AB1016100E0B3
:102800004161704709A100200CE00A5C124B1A805C
:1028100000BF114A121F128802F04002002AF8D0AD
:10282000421CD0B22A28F0D300BFFEE70D0A456E45
:1028300074657220486172644661756C745F4861AA
:102840006E646C65722C2053797374656D204861D9
:102850006C742E0D0A000000043801402DE9F0418F
:1028600004460D46164600276006070E00F02CF9B8
:10287000384600F0EFF841F2883000F069F910B105
:102880000120BDE8F081284600F0E4F841F28830EC
:1028900000F05EF908B10120F3E700F015F9791CAA
:1028A000C8B200F0D7F841F2883000F051F908B111
:1028B0000120E6E700F09EF8307000F079F800F0B3
:1028C00025F90020DDE72DE9F04105460E461446C6
:1028D00000276806070E00F0F7F8384600F0BAF84F
:1028E00041F2883000F034F910B10120BDE8F081E8
:1028F000304600F0AFF841F2883000F029F908B115
:102900000120F3E74CB1207800F0A4F841F28830C0
:1029100000F01EF908B10120E8E700F0F7F8002008
:10292000E4E7000010B54FF480610D48FFF761FF48
:102930004FF400610A48FFF75CFF0A490888FFF777
:1029400025FB4FF480610648FFF755FF05490888CD
:10295000FFF71CFB4FF480610148FFF74AFF10BDF1
:10296000000C01401414002008B50121082002F0D9
:102970009DFA14208DF803004FF44060ADF800007C
:1029800003208DF8020069460848FFF755FE052030
:1029900000F094F84FF400610448FFF72CFF4FF467
:1029A00080610248FFF727FF08BD0000000C0140CE
:1029B00010B54FF480610D48FFF71BFF4FF4006125
:1029C0000A48FFF718FF0A490888FFF7DFFA4FF4B3
:1029D00080610648FFF70FFF05490888FFF7D6FA20
:1029E0004FF480610148FFF704FF10BD000C014067
:1029F0001414002070B5002500244FF40061134822
:102A0000FFF7F9FE1DE04FF480611048FFF7F1FE7B
:102A10000F490888FFF7BAFA4FF480610B48FFF7B7
:102A2000EAFE6006040E4FF400610848FFF7D8FE86
:102A300008B1601CC4B206490888FFF7A7FA681CF1
:102A4000C5B2082DDFDB204670BD0000000C014040
:102A50001414002070B5044600254FF48061154819
:102A6000FFF7C7FE23E004F0800028B14FF40061B7
:102A70001048FFF7C0FE04E04FF400610D48FFF777
:102A8000B8FE6006040E0C490888FFF77FFA4FF481
:102A900080610848FFF7AFFE07490888FFF776FA1C
:102AA0004FF480610348FFF7A4FE681CC5B2082DEF
:102AB000D9DB70BD000C01401414002001490880CE
:102AC000704700001414002010B54FF400610D4849
:102AD000FFF791FE4FF480610A48FFF78CFE0A4928
:102AE0000888FFF753FA4FF400610648FFF781FEAC
:102AF00005490888FFF74AFA4FF480610148FFF75B
:102B000078FE10BD000C01401414002010B54FF4E5
:102B100000610D48FFF76DFE4FF480610A48FFF732
:102B200068FE0A490888FFF731FA4FF480610648C9
:102B3000FFF761FE4FF400610348FFF75CFE0349B5
:102B40000888FFF723FA10BD000C01401414002080
:102B500010B504464FF400611448FFF74CFE1449C9
:102B60000888FFF713FA4FF480611048FFF743FE1F
:102B70000F490888FFF70AFA0AE0601E041E03D115
:102B8000FFF7C4FF012010BD09490888FFF7FEF9CF
:102B90004FF400610548FFF723FE0028EDD14FF404
:102BA00080610248FFF725FE0020ECE7000C0140A1
:102BB0001414002008B50121302002F077F94820D4
:102BC0008DF803004FF46050ADF8000003208DF83D
:102BD000020069460548FFF72FFD0420ADF800000C
:102BE00069460348FFF728FD08BD000000100140BA
:102BF0000014014010B500F06BF830B103281FD06D
:102C0000062838D009283BD139E000201E49087039
:102C10001E480078401E1D490870084600780128AB
:102C200002DA0120087006E018480078092802DD61
:102C30000A20164908701548007800F0D3FC20E0FF
:102C400000201149087011480078401C0F49087095
:102C5000084600780A2802DD0120087006E00B48CB
:102C60000078012802DA0A2008490870074800782D
:102C700000F0B8FC05E001200349087001E000E025
:102C800000BF00BF10BD00004C140020161400202F
:102C900070B504460D460C48844207D1A9B2FFF72F
:102CA0009FFD08B9012070BD0020FCE70748844261
:102CB00007D1A9B2FFF794FD08B90120F3E700207E
:102CC000F1E70020EFE70000001001400014014090
:102CD00010B54FF400511E48FFF7DAFF40B100BFB6
:102CE0004FF400511A48FFF7D3FF0028F8D110BD68
:102CF0004FF400611648FFF7CBFF48B100BF4FF417
:102D000000611348FFF7C4FF0028F8D10320EEE765
:102D10004FF480510E48FFF7BBFF48B100BF4FF49E
:102D200080510B48FFF7B4FF0028F8D10620DEE7FA
:102D300004210848FFF7ACFF40B100BF042105485B
:102D4000FFF7A6FF0028F9D10920D0E7FF20CEE742
:102D5000001001400014014070B5002415E004F19A
:102D6000B001C8B200F038F9012000F035F91020A8
:102D700000F032F9002504E0002000F059F9681C49
:102D8000C5B2802DF8DB601CC4B2082CE7DB70BD37
:102D900009E040F2375100BF0A1EA1F1010399B2C8
:102DA000FAD1421E90B20028F3D1704770B50646A2
:102DB000002415E004F1B001C8B200F00DF90120C3
:102DC00000F00AF9102000F007F9002504E0304671
:102DD00000F02EF9681CC5B2802DF8DB601CC4B26F
:102DE000082CE7DB70BD000008B50121092002F0C6
:102DF0005DF80121112002F059F801214648FFF742
:102E0000A7FC01214548FFF7A3FC0720ADF800000F
:102E100010208DF8030003208DF802006946404819
:102E2000FFF70AFC4FF44070ADF8000010208DF859
:102E3000030003208DF8020069463A48FFF7FCFBC7
:102E400004213748FFF7D7FC01213548FFF7D1FCB3
:102E50003220FFF79DFF01213148FFF7CCFCAE2067
:102E600000F0BAF8002000F0B7F8102000F0B4F835
:102E7000402000F0B1F8812000F0AEF8CF2000F043
:102E8000ABF8A12000F0A8F8C82000F0A5F8A62013
:102E900000F0A2F8A82000F09FF83F2000F09CF876
:102EA000D32000F099F8002000F096F8D52000F02B
:102EB00093F8802000F090F8D92000F08DF8F120F0
:102EC00000F08AF8DA2000F087F8122000F084F889
:102ED000DB2000F081F8402000F07EF8202000F098
:102EE0007BF8022000F078F88D2000F075F81420AF
:102EF00000F072F8A42000F06FF8A62000F06CF843
:102F0000AF2000F069F80020FFF750FF00210846CD
:102F100000F04EF808BD0000000430000002300050
:102F200000100140000C01402DE9F04706460F4615
:102F3000904600250024A14631E018F80900203809
:102F4000C5B2782E02DD0026781CC7B2394630465D
:102F500000F02EF8002407E004EB0511134A505C42
:102F600000F066F8601CC4B2082CF5DB781CC1B216
:102F7000304600F01DF8002408E004EB051108318C
:102F80000A4A505C00F054F8601CC4B2082CF4DB10
:102F900006F10800C6B209F1010000F0FF0918F8B7
:102FA00009000028C9D1BDE8F08700003595000868
:102FB00070B504460D4605F1B001C8B200F00CF83A
:102FC000102141EA141000F007F804F00F0141F05D
:102FD000010000F001F870BD70B504460825A90194
:102FE0001148FFF706FC04211048FFF702FC15E02A
:102FF00004F0800020B102210C48FFF7FCFB03E045
:1030000002210A48FFF7F5FB04210848FFF7F3FB0C
:1030100004210648FFF7EDFB6006040E281EA5F10B
:103020000101CDB2E4D170BD000C0140001001409F
:1030300070B504460825A9011148FFF7DCFB0421FF
:103040001048FFF7D6FB15E004F0800020B1022104
:103050000C48FFF7D0FB03E002210A48FFF7C9FB49
:1030600004210848FFF7C7FB04210648FFF7C1FB0E
:103070006006040E281EA5F10101CDB2E4D170BD99
:10308000000C01400010014008B50121142001F09E
:103090000DFF10208DF803004FF4B060ADF8000074
:1030A00003208DF8020069460B48FFF7C5FA4FF47C
:1030B0008050ADF8000069460848FFF7BDFA0020CF
:1030C00000F088F8002000F09DF8002000F0B2F831
:1030D000002000F0C7F808BD0010014000080140C2
:1030E00010B520490868204905F00AFE044605F09D
:1030F000BBFD1E4908811B4948681B4905F000FEBD
:10310000044605F0B1FD19494881164988681649F9
:1031100005F0F6FD044605F0A7FD14498881144921
:103120000868114905F0ECFD044605F09DFD0F49C6
:10313000C8810F4948680C4905F0E2FD044605F0D6
:1031400093FD0A4908820B48007848820A490868BA
:103150000A4905F0D5FD044605F086FD034988823D
:1031600010BD0000C86A00200000C84226000020F0
:103170001C1400200D1400202414002000007A44A8
:1031800010B50A220D210348FEF77AFC02490860B7
:1031900010BD0000002401402414002008B50121C6
:1031A000102001F083FE00208DF803000820ADF808
:1031B000000003208DF8020069460448FFF73CFA3E
:1031C00000210348FEF780FC08BD0000001001400C
:1031D0000024014010B50446012C01D0012000E07C
:1031E0000020024680210548FFF707FB0CB10120B3
:1031F00000E000200249087010BD000000100140EE
:103200001814002010B50446012C01D0012000E064
:10321000002002464FF480710448FFF7EEFA0CB12B
:10322000012000E000200249487010BD001001405C
:103230001814002010B50446012C01D0012000E034
:10324000002002464FF480510448FFF7D6FA0CB133
:10325000012000E000200249887010BD00080140F4
:103260001814002010B50446012C01D0012000E004
:10327000002002464FF480610448FFF7BEFA0CB10B
:10328000012000E000200249C87010BD001001407C
:103290001814002000BFFEE77047000070B5002141
:1032A00000230F22C47804B3154C246804F4E064AE
:1032B000C4F5E064210AC1F10403CA40447804FA69
:1032C00003F184781440214309010E4C0678A1557E
:1032D000047804F01F050124AC4005786D11AD00A1
:1032E00005F1E025C5F8004109E0047804F01F0568
:1032F0000124AC40044D0678761145F8264070BD97
:103300000CED00E000E400E080E100E00249014350
:10331000024A1160704700000000FA050CED00E061
:103320002DE9F04F07461546DDF83080099C002254
:1033300007FB01F94FEAE97A09EB5A7A4FEAEA0A00
:10334000DDF828B00AFB0BF64FEAE17A01EB5A7A76
:103350004FEAEA0AA1EBCA0ABAF1000F02D04FF015
:10336000010C01E04FF0000C002066E000225EE05E
:10337000DDF82C90B9F1000F28D1B8F1000F12D070
:1033800015F806A0A1464FEAE47B04EB5B7B00EB5B
:10339000EB0B4FF0800E0EFB0B3B9344DFF8B0E0DD
:1033A0000EF80BA03EE015F806A0A1464FEAE47B1C
:1033B00004EB5B7B00EBEB0B4FF0800E0EFB0B3B4B
:1033C0009344DFF890E00EF80BA02BE0B8F1000F6B
:1033D00014D015F806A06FEA0A0AA1464FEAE47B6A
:1033E00004EB5B7B00EBEB0B4FF0800E0EFB0B3B1B
:1033F0009344DFF85CE00EF80BA013E015F806A08C
:103400006FEA0A0AA1464FEAE47B04EB5B7B00EB20
:10341000EB0B4FF0800E0EFB0B3B9344DFF834E0D8
:103420000EF80BA0761C02F1010909F0FF02BA4266
:103430009EDB00F1010909F0FF004FEAE17A01EBA0
:103440005A7A0CEBEA0A824590DCBDE8F08F000066
:1034500004100020386600202DE9F04304460D4694
:1034600017469946AC4202DDA84625464446264604
:1034700007E04B4601223946304600F01FF8701C29
:10348000C6B2AE42F5DDBDE8F0832DE9F043044657
:103490000D4617469946AC4202DDA84625464446ED
:1034A000264607E04B4601223146384600F006F832
:1034B000701CC6B2AE42F5DDBDE8F0832DE9F041E7
:1034C00015461C4600227F2801DC3F2901DDBDE8AE
:1034D000F0810B46CF1701EB5777FF10A1EBC70721
:1034E000FEB20123B340DAB2D5B3E4B1CF1701EB9A
:1034F0005777FF104FF0800C0CFB0707DFF8DCC09C
:103500001CF8077017430B464FEAE17C01EB5C7C2B
:103510004FEAEC0C4FF0800808FB0C0CDFF8BC8085
:1035200008F80C7057E0CF1701EB5777FF104FF0FA
:10353000800C0CFB0707DFF8A8C01CF807701743C6
:103540000B464FEAE17C01EB5C7C4FEAEC0C4FF060
:10355000800808FB0C0CDFF8888008F80C703AE053
:10356000FFE7E4B1CF1701EB5777FF104FF0800C66
:103570000CFB0707DFF864C01CF8077097430B4685
:103580004FEAE17C01EB5C7C4FEAEC0C4FF08008E9
:1035900008FB0C0CDFF8448008F80C701BE0CF1718
:1035A00001EB5777FF104FF0800C0CFB0707DFF89B
:1035B00030C01CF8077097430B464FEAE17C01EBE3
:1035C0005C7C4FEAEC0C4FF0800808FB0C0CDFF839
:1035D000108008F80C7000BF79E70000041000208C
:1035E0003866002001B584B004980B2881F0508221
:1035F000DFE810F00B00EF00DE01D502C403BA04CF
:10360000A8059E068D078308650902F025FC0120A8
:1036100000210C22CDE900121023FE4ACDE9021050
:1036200019461846FFF77CFE012000210822CDE94B
:1036300000122023F74ACDE9021010210846FFF7B7
:103640006FFE012000210922CDE900123023F14A4A
:10365000CDE9021010210846FFF762FE012000218B
:103660000A22CDE900124023EA4ACDE902101021D6
:103670000846FFF755FE012000210B22CDE900127C
:103680005023E44ACDE9021010210846FFF748FE16
:10369000012000210D22CDE900126023DD4ACDE991
:1036A000021010210846FFF73BFE012000211023E5
:1036B000CDE900310223D84ACDE90210182108468D
:1036C000FFF72EFE012000211023CDE900301B233F
:1036D000D14ACDE9021018210846FFF721FE01204A
:1036E000002102221023CDE90032CDE9021034235B
:1036F000C94A18210846FFF713FE012000210322C2
:103700001023CDE90032CDE902104D23C24A182121
:103710000846FFF705FE0120002104221023CDE911
:103720000032CDE902106623BB4A18210846FFF794
:10373000F7FD0120002105222823CDE90032CDE943
:1037400002100223B44A18210846FFF7E9FD0120C0
:10375000002106222823CDE90032CDE902101B23E7
:10376000AD4A18210846FFF7DBFD012000210722A2
:103770002823CDE90032CDE902103423A64A1821CE
:103780000846FFF7CDFD0120002108222823CDE9BE
:103790000032CDE902104D239F4A18210846FFF759
:1037A000BFFD0120002109222823CDE90032CDE907
:1037B00002106623984A18210846FFF7B1FD974882
:1037C0000823802200210090084601F099F901F0B9
:1037D00061B902F041FB01200021CDE900100B4648
:1037E0008C4ACDE9021010210846FFF799FD01200F
:1037F00000210822CDE900122023864ACDE90210DB
:1038000010210846FFF78CFD012000210922CDE997
:10381000001230237F4ACDE9021010210846FFF73D
:103820007FFD012000210A22CDE900124023794AC0
:10383000CDE9021010210846FFF772FD012000219A
:103840000B22CDE900125023724ACDE9021010215B
:103850000846FFF765FD012000210C22CDE900128A
:1038600010236C4ACDE9021019461846FFF758FD9F
:10387000012000210D22CDE900126023654ACDE927
:10388000021010210846FFF74BFD012000221023F3
:10389000CDE901200093039002235F4A18210846D6
:1038A000FFF73EFD012000211023CDE900301B234E
:1038B000594ACDE9021018210846FFF731FD0120D1
:1038C000002102221023CDE90032CDE90210342379
:1038D000514A18210846FFF723FD01200021032249
:1038E0001023CDE90032CDE902104D234A4A1821B8
:1038F0000846FFF715FD0120002104221023CDE921
:103900000032CDE902106623434A18210846FFF72A
:1039100007FD0120002105222823CDE90032CDE951
:10392000021002233C4A18210846FFF7F9FC012047
:10393000002106222823CDE90032CDE902101B2305
:10394000354A18210846FFF7EBFC01200021072229
:103950002823CDE90032CDE9021034232E4A182164
:103960000846FFF7DDFC0120002108222823CDE9CD
:103970000032CDE902104D23274A18210846FFF7EF
:10398000CFFC0120002109222823CDE90032CDE916
:1039900002106623204A18210846FFF7C1FC1F4881
:1039A0000823802200210090084601F0A9F80EE7C4
:1039B00002F052FA012000210222CDE900120B464A
:1039C000144ACDE9021010210846FFF7A9FC012096
:1039D00000210822CDE9001220230E4ACDE9021071
:1039E00010210846FFF79CFC012000210922CDE9A7
:1039F00000123023074ACDE9021010210846FFF7D4
:103A00008FFC012000210A22CDE900124023014A47
:103A100006E00000440E0020740B0020041000207B
:103A2000CDE9021010210846FFF77AFC01200021A1
:103A30000B22CDE900125023FE4ACDE902101021DD
:103A40000846FFF76DFC012000210C22CDE9001291
:103A50001023F84ACDE9021019461846FFF760FC1A
:103A6000012000210D22CDE900126023F14ACDE9A9
:103A7000021010210846FFF753FC012000211023FB
:103A8000CDE900310223EC4ACDE9021018210846A5
:103A9000FFF746FC01201023CDE9003002901B23E4
:103AA000E54A182103900846FFF73AFC012000215F
:103AB00002221023CDE90032CDE902103423DE4A80
:103AC00018210846FFF72CFC0120002103221023B7
:103AD000CDE90032CDE902104D23D74A182108461E
:103AE000FFF71EFC0120002104221023CDE9003243
:103AF000CDE902106623D04A18210846FFF710FCD2
:103B00000120002105222823CDE90032CDE9021051
:103B10000223C94A18210846FFF702FC01200021B0
:103B200006222823CDE90032CDE902101B23C24A28
:103B300018210846FFF7F4FB012000210722282363
:103B4000CDE90032CDE902103423BB4A18210846E2
:103B5000FFF7E6FB0120002108222823CDE90032EF
:103B6000CDE902104D23B44A18210846FFF7D8FBCF
:103B70000120002109222823CDE90032CDE90210DD
:103B80006623AD4A18210846FFF7CAFBAB48082355
:103B9000802200210090084600F0B2FF17E602F0F4
:103BA0005BF9012000210322CDE900120B46A14A56
:103BB000CDE9021010210846FFF7B2FB01200021D9
:103BC0000822CDE9001220239A4ACDE902101021E3
:103BD0000846FFF7A5FB012000210922CDE90012CC
:103BE0003023944ACDE9021010210846FFF798FBD4
:103BF000012000210A22CDE9001240238D4ACDE99F
:103C0000021010210846FFF78BFB012000210B2238
:103C1000CDE900125023874ACDE902101021084651
:103C2000FFF77EFB012000210C22CDE900121023BA
:103C3000804ACDE9021019461846FFF771FB0120B2
:103C400000210D22CDE9001260237A4ACDE902104D
:103C500010210846FFF764FB012000211023CDE965
:103C600000310223744ACDE9021018210846FFF7FB
:103C700057FB012000211023CDE900301B236E4AA1
:103C8000CDE9021018210846FFF74AFB0120022265
:103C90001023CDE90120009303903423664A1821B4
:103CA0000846FFF73DFB0120002103221023CDE948
:103CB0000032CDE902104D235F4A18210846FFF774
:103CC0002FFB0120002104221023CDE90032CDE991
:103CD00002106623584A18210846FFF721FB0120ED
:103CE000002105222823CDE90032CDE9021002236C
:103CF000514A18210846FFF713FB01200021062234
:103D00002823CDE90032CDE902101B234A4A1821AD
:103D10000846FFF705FB0120002107222823CDE9F3
:103D20000032CDE902103423434A18210846FFF738
:103D3000F7FA0120002108222823CDE90032CDE93D
:103D400002104D233C4A18210846FFF7E9FA0120EA
:103D5000002109222823CDE90032CDE90210662393
:103D6000354A18210846FFF7DBFA34480823802239
:103D700000210090084600F0C3FE28E502F06CF830
:103D8000012000210422CDE900120B46294ACDE989
:103D9000021010210846FFF7C3FA01200021082273
:103DA000CDE900122023234ACDE902101021084654
:103DB000FFF7B6FA012000210922CDE900123023D5
:103DC0001C4ACDE9021010210846FFF7A9FA01208C
:103DD00000210A22CDE900124023164ACDE9021043
:103DE00010210846FFF79CFA012000210B22CDE9A3
:103DF000001250230F4ACDE9021010210846FFF7A8
:103E00008FFA012000210C22CDE900121023094A6B
:103E1000CDE9021019461846FFF782FA0120002169
:103E20000D22CDE900126023024ACDE902101021D3
:103E3000084605E0440E0020740B0020041000200A
:103E4000FFF76EFA012000211023CDE90031022393
:103E5000FE4ACDE9021018210846FFF761FA012059
:103E600000211023CDE900301B23F84ACDE90210D0
:103E700018210846FFF754FA0120002102221023DE
:103E8000CDE90032CDE902103423F04A182108466A
:103E9000FFF746FA012003221023CDE90120009309
:103EA00003904D23E94A18210846FFF739FA01200B
:103EB000002104221023CDE90032CDE9021066234F
:103EC000E24A18210846FFF72BFA012000210522BB
:103ED0002823CDE90032CDE902100223DB4A182164
:103EE0000846FFF71DFA0120002106222823CDE90C
:103EF0000032CDE902101B23D44A18210846FFF7EF
:103F00000FFA0120002107222823CDE90032CDE954
:103F100002103423CD4A18210846FFF701FA012088
:103F2000002108222823CDE90032CDE902104D23DB
:103F3000C64A18210846FFF7F3F90120002109229B
:103F40002823CDE90032CDE902106623BF4A1821AB
:103F50000846FFF7E5F9BE480823802200210090BB
:103F6000084600F0CDFD32E401F076FF012000218B
:103F7000009101910B46B74ACDE902101021084685
:103F8000FFF7CEF9012000210822CDE900122023FD
:103F9000B04ACDE9021010210846FFF7C1F901200F
:103FA00000210922CDE900123023AA4ACDE90210EE
:103FB00010210846FFF7B4F9012000210A22CDE9BB
:103FC00000124023A34ACDE9021010210846FFF752
:103FD000A7F9012000210B22CDE9001250239D4AB0
:103FE000CDE9021010210846FFF79AF901200021BF
:103FF0000C22CDE900121023964ACDE90210194691
:104000001846FFF78DF9012000210D22CDE900129D
:104010006023904ACDE9021010210846FFF780F98D
:10402000012000211023CDE900310223874ACDE988
:10403000021018210846FFF773F901200021102310
:10404000CDE900301B23814ACDE902101821084632
:10405000FFF766F90120002102221023CDE900328A
:10406000CDE902103423794A18210846FFF758F9A0
:104070000120002103221023CDE90032CDE90210F6
:104080004D23724A18210846FFF74AF901200422FD
:104090001023CDE901200093039066236B4A182179
:1040A0000846FFF73DF90120002105222823CDE92C
:1040B0000032CDE902100223644A18210846FFF7B6
:1040C0002FF90120002106222823CDE90032CDE975
:1040D00002101B235D4A18210846FFF721F9012031
:1040E000002107222823CDE90032CDE90210342334
:1040F000564A18210846FFF713F90120002108222B
:104100002823CDE90032CDE902104D234F4A182172
:104110000846FFF705F90120002109222823CDE9EF
:104120000032CDE902106623484A18210846FFF7FD
:10413000F7F847480823802200210090084600F045
:10414000DFFC34E401F088FE012000210522CDE9E6
:1041500000120B463F4ACDE9021010210846FFF736
:10416000DFF8012000210822CDE900122023394A7E
:10417000CDE9021010210846FFF7D2F801200021F6
:104180000922CDE900123023324ACDE90210102174
:104190000846FFF7C5F8012000210A22CDE90012E8
:1041A00040232C4ACDE9021010210846FFF7B8F849
:1041B000012000210B22CDE900125023254ACDE930
:1041C000021010210846FFF7ABF8012000210C2255
:1041D000CDE9001210231F4ACDE9021019461846F6
:1041E000FFF79EF8012000210D22CDE90012602387
:1041F000184ACDE9021010210846FFF791F8012076
:1042000000211023CDE900310223104ACDE902102C
:1042100018210846FFF784F8012000211023CDE97A
:1042200000301B23094ACDE9021018210846FFF788
:1042300077F80120002102221023CDE90032CDE9D8
:1042400002103423014A1821084605E0740B0020AF
:1042500004100020440E0020FFF762F80120002126
:1042600003221023CDE90032CDE902104D23FE4A8E
:1042700018210846FFF754F80120002104221023DA
:10428000CDE90032CDE902106623F74A182108462D
:10429000FFF746F8012005222823CDE901200093ED
:1042A00003900223F04A18210846FFF739F801204D
:1042B000002106222823CDE90032CDE902101B237C
:1042C000E94A18210846FFF72BF8012000210722B0
:1042D0002823CDE90032CDE902103423E24A182127
:1042E0000846FFF71DF80120002108222823CDE908
:1042F0000032CDE902104D23DB4A18210846FFF7B2
:104300000FF80120002109222823CDE90032CDE950
:1043100002106623D44A18210846FFF701F8D34853
:104320000823802200210090084600F0E9FBB1E359
:1043300001F092FD012000210622CDE900120B467A
:10434000CB4ACDE9021010210846FEF7E9FF012013
:1043500000210822CDE900122023C54ACDE9021030
:1043600010210846FEF7DCFF012000210922CDE9DB
:1043700000123023BE4ACDE9021010210846FEF794
:10438000CFFF012000210A22CDE900124023B84AC4
:10439000CDE9021010210846FEF7C2FF01200021DE
:1043A0000B22CDE900125023B14ACDE902101021B1
:1043B0000846FEF7B5FF012000210C22CDE90012CE
:1043C0001023AB4ACDE9021019461846FEF7A8FFA4
:1043D000012000210D22CDE900126023A44ACDE97D
:1043E000021010210846FEF79BFF01200021102338
:1043F000CDE9003102239C4ACDE90210182108467C
:10440000FEF78EFF012000211023CDE900301B2391
:10441000954ACDE9021018210846FEF781FF0120D8
:10442000002102221023CDE90032CDE9021034230D
:104430008D4A18210846FEF773FF01200021032250
:104440001023CDE90032CDE902104D23864A182110
:104450000846FEF765FF0120002104221023CDE964
:104460000032CDE9021066237F4A18210846FEF784
:1044700057FF0120002105222823CDE90032CDE994
:1044800002100223784A18210846FEF749FF01204E
:1044900006222823CDE90120009303901B23724AB2
:1044A00018210846FEF73CFF01200021072228239F
:1044B000CDE90032CDE9021034236B4A18210846B9
:1044C000FEF72EFF0120002108222823CDE900322B
:1044D000CDE902104D23644A18210846FEF720FF5B
:1044E0000120002109222823CDE90032CDE9021064
:1044F00066235D4A18210846FEF712FF5B48082331
:10450000802200210090084600F0FAFAC2E201F091
:10451000A3FC012000210722CDE900120B46544ADA
:10452000CDE9021010210846FEF7FAFE0120002115
:104530000822CDE9001220234D4ACDE902101021B6
:104540000846FEF7EDFE012000210922CDE9001208
:104550003023474ACDE9021010210846FEF7E0FE5D
:10456000012000210A22CDE900124023404ACDE972
:10457000021010210846FEF7D3FE012000210B2275
:10458000CDE9001250233A4ACDE902101021084625
:10459000FEF7C6FE012000210C22CDE900121023F7
:1045A000334ACDE9021019461846FEF7B9FE01203C
:1045B00000210D22CDE9001260232D4ACDE9021021
:1045C00010210846FEF7ACFE012000211023CDE9A2
:1045D00000310223244ACDE9021018210846FEF7D3
:1045E0009FFE012000211023CDE900301B231E4A2D
:1045F000CDE9021018210846FEF792FE01200021A5
:1046000002221023CDE90032CDE902103423164AEC
:1046100018210846FEF784FE012000210322102302
:10462000CDE90032CDE902104D230F4A182108468A
:10463000FEF776FE0120002104221023CDE900328E
:10464000CDE902106623084A18210846FEF768FEE5
:104650000120002105222823CDE90032CDE90210F6
:104660000223014A182105E0740B002004100020E9
:10467000440E00200846FEF753FE012000210622CA
:104680002823CDE90032CDE902101B23FD4A182171
:104690000846FEF745FE012007222823CDE9012028
:1046A000009303903423F74A18210846FEF738FE9A
:1046B0000120002108222823CDE90032CDE9021093
:1046C0004D23F04A18210846FEF72AFE012000215A
:1046D00009222823CDE90032CDE902106623E94AF8
:1046E00018210846FEF71CFEE74808238022002117
:1046F0000090084600F004FACCE101F0ADFB012087
:1047000000210822CDE900122023E04ACDE9021061
:1047100010210846FEF704FE012000210922CDE900
:1047200000123023D94ACDE9021010210846FEF7C5
:10473000F7FD012000210A22CDE900124023D34ACF
:10474000CDE9021010210846FEF7EAFD0120002104
:104750000B22CDE900125023CC4ACDE902101021E2
:104760000846FEF7DDFD012000210C22CDE90012F4
:104770001023C64ACDE9021019461846FEF7D0FDAF
:10478000012000210D22CDE900126023BF4ACDE9AE
:10479000021010210846FEF7C3FD0120002110235E
:1047A000CDE900310223B74ACDE9021018210846AD
:1047B000FEF7B6FD012000211023CDE900301B23B8
:1047C000B04ACDE9021018210846FEF7A9FD0120E4
:1047D000002102221023CDE90032CDE9021034235A
:1047E000A84A18210846FEF79BFD0120002103225C
:1047F0001023CDE90032CDE902104D23A14A182142
:104800000846FEF78DFD0120002104221023CDE98A
:104810000032CDE9021066239A4A18210846FEF7B5
:104820007FFD0120002105222823CDE90032CDE9BA
:1048300002100223934A18210846FEF771FD012059
:10484000002106222823CDE90032CDE902101B23E6
:104850008C4A18210846FEF763FD0120002107223B
:104860002823CDE90032CDE902103423854A1821EE
:104870000846FEF755FD012008222823CDE9012036
:10488000009303904D237F4A18210846FEF748FD08
:104890000120002109222823CDE90032CDE90210B0
:1048A0006623784A18210846FEF73AFD7648082321
:1048B000802200210090084600F022F9EAE001F091
:1048C000CBFA012000210822CDE9001220236F4AF3
:1048D000CDE9021010210846FEF722FD012000213B
:1048E0000922CDE900123023684ACDE902101021D7
:1048F0000846FEF715FD012000210A22CDE900122D
:104900004023624ACDE9021010210846FEF708FD57
:10491000012000210B22CDE9001250235B4ACDE992
:10492000021010210846FEF7FBFC012000210C229A
:10493000CDE900121023554ACDE902101946184658
:10494000FEF7EEFC012000210D22CDE900126023CC
:104950004E4ACDE9021010210846FEF7E1FC012085
:1049600000211023CDE900310223464ACDE902108F
:1049700018210846FEF7D4FC012000211023CDE9C0
:1049800000301B233F4ACDE9021018210846FEF7EC
:10499000C7FC0120002102221023CDE90032CDE91D
:1049A00002103423374A18210846FEF7B9FC0120CB
:1049B000002103221023CDE90032CDE902104D235E
:1049C000304A18210846FEF7ABFC012000210422E2
:1049D0001023CDE90032CDE902106623294A1821BF
:1049E0000846FEF79DFC0120002105222823CDE981
:1049F0000032CDE902100223224A18210846FEF7B0
:104A00008FFC0120002106222823CDE90032CDE9C8
:104A100002101B231B4A18210846FEF781FC0120C7
:104A2000002107222823CDE90032CDE902103423EA
:104A3000144A18210846FEF773FC012000210822C1
:104A40002823CDE90032CDE902104D230D4A18216B
:104A50000846FEF765FC012009222823CDE9012044
:104A6000009303906623074A18210846FEF758FC76
:104A700005480823802200210090084600F040F8F5
:104A800008E00000740B002004100020440E0020F9
:104A900005B000BD00BF00BFFAE700002DE9F047F8
:104AA0000446884615464FF000090026002720E0FE
:104AB000E85D203800F0FF097E2C04DD002408F1B9
:104AC000010000F0FF0841462046FEF771FA00267B
:104AD00009E009EB4901094A02EB4101885DFEF753
:104AE000A7FA701CC6B2062EF3DBA01DC4B2781C58
:104AF000C7B2E85D0028DBD1BDE8F08776920008F8
:104B00002DE9F05F06460F4690461C46DDF828A0CA
:104B10004FF0000BE11704EB5171C910A4EBC10178
:104B200031B92046E11704EB5171C1F3C70506E026
:104B30002046E11704EB5171C910491CCDB23D4626
:104B400014E029463046FEF733FAB1460AE05946EA
:104B50000BF1010B1AF80100FEF76AFA09F10100E6
:104B600000F0FF09C145F2DB681CC5B2A542E8DBD5
:104B7000BDE8F09F2DE9F04FADF50D7D8146B9F10F
:104B80000B0F73D2DFE809F006090C7376A7ABAF01
:104B9000E7EAFB0000F0CEFF22E101F07FFF1FE11A
:104BA000FEF7DAF8FA20FDF731FC04467CB18FA25B
:104BB00004211E20FFF772FF207803F017FC054642
:104BC0002A460B4607212620FDF74AFA4DE04FF40E
:104BD000FA7110A8FBF798FD00F0F6F986494868CD
:104BE00003F0F2FE05460E468349086803F0ECFE2A
:104BF000074688468149086803F0E6FE82468B46F0
:104C00007F49886803F0E0FECDE90E017C494868E1
:104C100003F0DAFECDE90C017949086803F0D4FE0F
:104C2000CDE904ABCDE90678CDE90856CDE90A0116
:104C3000DDE90E01CDE90201DDE90C01CDE900015C
:104C4000704910A8DDE90A23FBF766FBC82110A80C
:104C5000FDF7B4FC6CA204211E20FFF71FFF6EA21B
:104C600005211E20FFF71AFF00BFB9E0B7E0FDF7EE
:104C7000A3FBB5E04FF0000A00BF15E05F490868EC
:104C800003F0F2FF00F0FF0B584603F0AFFB0746BE
:104C9000624A634B03F0BEFB054603F063FB6149C8
:104CA00001F80A000AF1010ABAF1800FE6DB5D485B
:104CB00000F0DCFE5CA207210F20FFF7EFFE4F495A
:104CC000086803F081FE05462A460B460721262088
:104CD000FDF7C6F984E001205649087080E0012004
:104CE000554908707CE0002089908A908B908C90C8
:104CF000FEF732F84249086803F066FE05462A4688
:104D00000B464EA189A8FBF707FB89AA002108469C
:104D1000FFF7C4FE3A49486803F056FE05462A46A6
:104D20000B4648A189A8FBF7F7FA89AA03210020BE
:104D3000FFF7B4FE3249886803F046FE05462A466E
:104D40000B4642A189A8FBF7E7FA89AA05210020B2
:104D5000FFF7A4FE44E0FDF721F841E00020899030
:104D60008A908B908C9000F02FF9FDF7F5FF224987
:104D7000086803F029FE05462A460B4600E019E0C4
:104D800034A189A8FBF7C8FA89AA00210846FFF7D1
:104D900085FE1949486803F017FE05462A460B466A
:104DA0002FA189A8FBF7B8FA89AA03210020FFF7F1
:104DB00075FE15E0012080F3138800BF00BFBFF32C
:104DC0004F8F2A48006800F4E06029490843001D1D
:104DD00026490860BFF34F8F00BF00BFFEE700BF4A
:104DE00000BF0DF50D7DBDE8F08F000044617461DA
:104DF000282D762D290000001C14002024140020EA
:104E0000C86A002058A000084D5154542D776F7285
:104E10006B2E2E2E2E00000059455300A913D044AE
:104E2000D8645340386A002041443A5B2020202057
:104E3000205D00004E1400204D140020583A25300B
:104E40002E326600593A25302E3266005A3A253005
:104E50002E326600583A25302E326643000000009C
:104E6000593A25302E326625250000000CED00E071
:104E70000000FA0501460020034A506820F4404033
:104E800008435060704700000010024029B1064AF4
:104E9000D2690243044BDA6104E0034AD2698243D7
:104EA000014BDA61704700000010024029B1064A48
:104EB00092690243044B9A6104E0034A9269824377
:104EC000014B9A61704700000010024029B1064A68
:104ED000D2680243044BDA6004E0034AD26882439A
:104EE000014BDA60704700000010024030B500212D
:104EF0000022002400232D4D6D6805F00C0121B126
:104F0000042905D0082923D105E0294D056022E0B8
:104F1000284D05601FE0254D6D6805F47012234D86
:104F20006D6805F48034022505EB92421CB9224DD0
:104F3000554305600BE01D4D6D6805F400351DB14E
:104F40001E4D5543056002E01A4D5543056002E0D1
:104F5000174D056000BF00BF144D6D6805F0F001EE
:104F60000909174D6B5C0568DD4045600F4D6D68A4
:104F700005F4E061090A124D6B5C4568DD4085600F
:104F80000A4D6D6805F46051C90A0D4D6B5C4568AA
:104F9000DD40C560054D6D6805F44041890B094D44
:104FA0006B5CC568B5FBF3F5056130BD00100240D0
:104FB00000127A00001BB70000093D00808D5B00E5
:104FC000281400203814002008B500200090052087
:104FD000FDF774FD00F030F86420FCF7D7FF0021E6
:104FE000E32000F0AAF8134908604620FCF7F0FF20
:104FF0000021E52000F0A1F80E4948601920FCF7D7
:10500000E7FF00F019F81920FCF7E2FF6A46E621F5
:105010004020FDF758FC6420FCF7B8FF00F00CF8C6
:105020006420FCF7B3FF00F012F86420FCF7AEFF39
:1050300008BD00001C14002008B5002000906A463E
:10504000E7214020FDF70AFC9DF8000008BD10B5DF
:105050000022FE214020FDF736FC10BD2DE9F84F5F
:1050600082464FF0000B2AF0030A504603F034FE4C
:10507000009003F0A9FC8046074A084B03F0CAF9E8
:1050800006460022064B03F0B5FB044602F000FF83
:1050900083465846BDE8F88F7644CF7701405F3F9E
:1050A000000018402DE9F84F82464FF0000B2AF01F
:1050B000030A504603F010FE009003F085FC804682
:1050C000074A084B03F0A6F90646074A074B02F0C9
:1050D00011FF044602F0DCFE83465846BDE8F88F17
:1050E000D7A3703D0AF7653FCDCCCCCCCC6C47C084
:1050F00070B503460C46154600210026002200BF6D
:1051000013E0985C414008260BE001F0800020B1DC
:10511000312080EA4100C1B201E04806010E701E54
:10512000C6B2002EF1DC501CC2B2A242E9DBA94299
:1051300001D0012070BD0020FCE72DE9F8430646B0
:105140000C4600270025A846A9468025FDF7BCFC93
:105150002846FDF77FFC4CF25030FDF7F9FC10B10A
:105160000020BDE8F8833046FDF774FC4CF2503067
:10517000FDF7EEFC08B10020F3E7FDF7A5FC691C84
:10518000C8B2FDF767FC05E0FDF79EFC691CC8B2DC
:10519000FDF760FC4CF25030FDF7DAFC0028F3D14B
:1051A0004620FCF715FFFDF725FC8DF80000FDF704
:1051B000B9FBFDF71FFC8DF80100FDF7B3FBFDF710
:1051C00019FC0746FDF7F4FBFDF7A0FC3A46022167
:1051D0006846FFF78DFF9DF801009DF8001000EB79
:1051E00001201FFA80F8E32E04D14046FFF75AFF52
:1051F000814603E04046FFF731FF81461CB1484637
:1052000003F032FD20804846ABE70000F8B50446C5
:105210000D4616461F4601210420FFF747FE1020C9
:10522000ADF800008DF8030003208DF802006946F8
:105230000548FDF701FA054800F082F810210348FF
:1052400000F008F90120F8BD0008014000300140DD
:1052500021B1028842F04002028004E002884FF649
:10526000BF731A40028070470246002013890B402A
:105270000BB1012000E0002070470146888970478B
:105280008181704710B50022028802F441520B88D8
:105290004C8823438C882343CC8823430C892343A5
:1052A0004C8923438C892343CC8923431A430280AE
:1052B000838B4FF2FF74234083830B8A038210BDDC
:1052C0002DE9F04107460D461646002410210A48F4
:1052D000FDF78FFA00BF06E0295D084800F092F85C
:1052E0002855601CC4B2B442F6DB10210248FDF719
:1052F00082FA2046BDE8F0810008014000300140FC
:105300002DE9F04107460D461646002410210A48B3
:10531000FDF76FFA00BF05E0295D084800F072F85C
:10532000601CC4B2B442F7DB10210348FDF763FAF6
:105330002046BDE8F0810000000801400030014037
:1053400038B504462A48844216D1012141F20400AE
:10535000FFF7ACFDE020ADF8000018208DF8030049
:1053600003208DF8020069462248FDF765F9E02127
:105370002048FDF740FA1BE01F48844218D1012164
:105380000820FFF793FD01218803FFF77FFDA000B0
:10539000ADF8000018208DF8030003208DF80200FE
:1053A00069461648FDF748F9A1001448FDF723FAAD
:1053B0000020134908804FF48270488000208880C4
:1053C0000220C8800120088140024881382088815D
:1053D0000020C881072008822046FFF753FF0121E3
:1053E0002046FFF735FFFF21204600F00BF838BDBF
:1053F000003001400008014000380040000C01402E
:10540000586B002070B505460E46002405E0601C70
:10541000C4B2C82C01DD002070BD02212846FFF770
:1054200023FF0028F3D031462846FFF729FF002448
:1054300005E0601CC4B2C82C01DD0020ECE70121AE
:105440002846FFF711FF0028F3D02846FFF715FF85
:10545000C0B2E1E770B505460C46054884810146B7
:105460002846FFF70FFF01212846FFF7F1FE70BD28
:10547000586B002010B500F001F810BD0CB50020ED
:10548000019000903348006840F480303149086052
:1054900000BF3048006800F4003000900198401CC4
:1054A0000190009818B90198B0F5A06FF1D1294882
:1054B000006800F4003010B10120009001E00020ED
:1054C00000900098012843D12348006840F0100064
:1054D000214908600846006820F00300086008467B
:1054E000006840F0020008601A48406819494860A6
:1054F0000846406848600846406840F4806048605C
:105500000846406820F47C1048600846406840F433
:10551000881048600846006840F08070086000BF4E
:105520000C48006800F000700028F9D00948406875
:1055300020F00300074948600846406840F0020038
:10554000486000BF0348406800F00C000828F9D10B
:105550000CBD0000001002400020024010B5FAF718
:10556000ADFE02F06DFB18B14FF0805002490860AB
:105570000020FAF7AAFE10BD04ED00E010B51348B4
:10558000006840F001001149086008464068104971
:1055900008400E494860084600680E4908400B491B
:1055A00008600846006820F48020086008464068CB
:1055B00020F4FE0048604FF41F008860FFF75AFF98
:1055C0004FF000600449086010BD00000010024068
:1055D0000000FFF8FFFFF6FE08ED00E010B5012126
:1055E000054800F026F828B10121034800F012F820
:1055F00001F072FC10BD00000008004021B10288DB
:1056000042F08002028004E002884FF67F731A4065
:1056100002807047CA430282704721B1028842F07B
:105620000102028004E002884FF6FE731A400280F5
:10563000704730B50246002000230024158A05EA91
:105640000103958905EA010413B10CB1012000E0C2
:10565000002030BD1AB183890B43838102E0838926
:105660008B43838170478184704700000022028849
:105670001D4B98420ED01D4B98420BD0B0F1804F7D
:1056800008D01B4B984205D01A4B984202D01A4BB7
:10569000984204D14FF68F731A404B881A43174B28
:1056A000984207D0164B984204D04FF6FF431A4059
:1056B000CB881A4302808B8883850B8803850A4B2D
:1056C00098420BD0094B984208D00E4B984205D017
:1056D0000D4B984202D00D4B984201D10B7A0386B4
:1056E0000123838270470000002C014000340140F8
:1056F0000004004000080040000C00400010004082
:1057000000140040004001400044014000480140B6
:1057100010B540F225510D4800F071F8012806D16E
:1057200001F0E2FB40F22551084800F040F840F259
:105730002661064800F063F8012806D101F0DCFB81
:1057400040F22661014800F032F810BD00380140F7
:1057500010B540F225510E4800F051F8B0B10D4897
:105760000088802802D300200A4908800848001DCC
:105770000088C1B2074802880088401C054B188089
:10578000054881542021024800F008F810BD0000AF
:105790000044004010140020D86A002001F4007278
:1057A000B2F5007F00D100BFCA430280704710B538
:1057B0000022002340F66A14A14200D100BF0A1261
:1057C00001249440A3B2DC43048010BD21B182893E
:1057D00042F40052828104E082894DF6FF731A4040
:1057E0008281704702460020B1F5007F00D100BFE2
:1057F00013880B400BB1012000E00020704770B50A
:105800000246002400230025002040F66A16B1421B
:1058100000D100BFC1F3421501F01F03012606FAB3
:1058200003F3012D02D19689334006E0022D02D107
:10583000168A334001E0968A33400C12012606FA9C
:1058400004F41688344013B10CB1012000E00020AC
:1058500070BDF0B50346002400260025002040F668
:105860006A17B94200D100BF1846C1F3421401F0D3
:105870001F06012707FA06F5012C01D10C3004E0C0
:10588000022C01D1103000E014301AB107682F4308
:10589000076002E00768AF430760F0BD2DE9F047FD
:1058A00086B005460E460024A24600BFA14600274A
:1058B000B08900B100BF2F462C8A4CF6FF7004401F
:1058C000F08804432C82AC894EF6F3100440B08873
:1058D00031890843718908430443AC81AC8A4FF68F
:1058E000FF400440B0890443AC8201A8FFF7FEFAF0
:1058F0001F48874202D1DDF810A001E0DDF80CA0BE
:10590000A88900F4004040B10AEBCA0000EB0A107D
:1059100031684900B0FBF1F807E00AEBCA0000EB80
:105920000A1031688900B0FBF1F86420B8FBF0F090
:1059300004012009642101FB1089A88900F40040BA
:1059400040B1322000EBC900B0FBF1F000F00700DD
:10595000044308E0322000EB09106421B0FBF1F0B1
:1059600000F00F0004432C8106B0BDE8F087000072
:105970000038014001468888C0F308007047C1F331
:1059800008028280704700BFFEE7000010B586B0B5
:10599000044601210420FFF789FA01214804FFF79A
:1059A00075FA18208DF817000420ADF814000320B4
:1059B0008DF8160005A91E48FCF73EFE04208DF860
:1059C00017000820ADF8140003208DF8160005A973
:1059D0001748FCF731FE01940020ADF810000C20B0
:1059E000ADF80E000020ADF80C00ADF80A00ADF8DF
:1059F000080001A90F48FFF751FF01210D48FFF7EB
:105A0000E5FE012240F225510A48FFF722FF262039
:105A10008DF8000001208DF8030000208DF80100B2
:105A20008DF802006846FDF739FC06B010BD000095
:105A300000080140004400402DE9F04107460C46B3
:105A4000154600260DE014F8011B3846FFF797FFB6
:105A500000BF40213846FFF7C5FE0028F9D0701C72
:105A600086B2AE42EFDBBDE8F0810000F8B5054636
:105A700000F0F2F900233F2203211846FDF705FD4F
:105A800000231F2203211846FDF7FFFC00235F229D
:105A900003211846FDF7F9FC00233F221F211C209B
:105AA000FDF7F3FC00231F2211461C20FDF7EDFC3F
:105AB00000235F221F211C20FDF7E7FC00231A466C
:105AC0001F211846FDF7E1FC00237F221F21184605
:105AD000FDF7DBFC00231F227F211846FDF7BCFCED
